{
  "abi": [
    {
      "type": "function",
      "name": "BASIS_POINTS",
      "inputs": [],
      "outputs": [
        {
          "name": "",
          "type": "uint256",
          "internalType": "uint256"
        }
      ],
      "stateMutability": "view"
    },
    {
      "type": "function",
      "name": "aavePool",
      "inputs": [],
      "outputs": [
        {
          "name": "",
          "type": "address",
          "internalType": "contract IPool"
        }
      ],
      "stateMutability": "view"
    },
    {
      "type": "function",
      "name": "addLockPeriod",
      "inputs": [
        {
          "name": "newLockPeriod",
          "type": "uint256",
          "internalType": "uint256"
        }
      ],
      "outputs": [],
      "stateMutability": "nonpayable"
    },
    {
      "type": "function",
      "name": "addRewards",
      "inputs": [
        {
          "name": "period",
          "type": "uint256",
          "internalType": "uint256"
        },
        {
          "name": "rewardAmount",
          "type": "uint256",
          "internalType": "uint256"
        }
      ],
      "outputs": [],
      "stateMutability": "nonpayable"
    },
    {
      "type": "function",
      "name": "deposit",
      "inputs": [
        {
          "name": "depositId",
          "type": "bytes16",
          "internalType": "bytes16"
        },
        {
          "name": "amount",
          "type": "uint256",
          "internalType": "uint256"
        },
        {
          "name": "period",
          "type": "uint256",
          "internalType": "uint256"
        },
        {
          "name": "deadline",
          "type": "uint256",
          "internalType": "uint256"
        },
        {
          "name": "signature",
          "type": "bytes",
          "internalType": "bytes"
        }
      ],
      "outputs": [
        {
          "name": "",
          "type": "uint256",
          "internalType": "uint256"
        }
      ],
      "stateMutability": "nonpayable"
    },
    {
      "type": "function",
      "name": "earlyWithdrawalFee",
      "inputs": [],
      "outputs": [
        {
          "name": "",
          "type": "uint256",
          "internalType": "uint256"
        }
      ],
      "stateMutability": "view"
    },
    {
      "type": "function",
      "name": "getPosition",
      "inputs": [
        {
          "name": "depositId",
          "type": "bytes16",
          "internalType": "bytes16"
        }
      ],
      "outputs": [
        {
          "name": "positionOwner",
          "type": "address",
          "internalType": "address"
        },
        {
          "name": "positionAmount",
          "type": "uint256",
          "internalType": "uint256"
        },
        {
          "name": "liquidityIndex",
          "type": "uint256",
          "internalType": "uint256"
        },
        {
          "name": "entryTime",
          "type": "uint256",
          "internalType": "uint256"
        },
        {
          "name": "finalizationTime",
          "type": "uint256",
          "internalType": "uint256"
        },
        {
          "name": "positionIsActive",
          "type": "bool",
          "internalType": "bool"
        },
        {
          "name": "period",
          "type": "uint256",
          "internalType": "uint256"
        }
      ],
      "stateMutability": "view"
    },
    {
      "type": "function",
      "name": "getPositionValue",
      "inputs": [
        {
          "name": "depositId",
          "type": "bytes16",
          "internalType": "bytes16"
        }
      ],
      "outputs": [
        {
          "name": "currentValue",
          "type": "uint256",
          "internalType": "uint256"
        },
        {
          "name": "interest",
          "type": "uint256",
          "internalType": "uint256"
        }
      ],
      "stateMutability": "view"
    },
    {
      "type": "function",
      "name": "initialize",
      "inputs": [
        {
          "name": "_token",
          "type": "address",
          "internalType": "address"
        },
        {
          "name": "_aavePool",
          "type": "address",
          "internalType": "address"
        },
        {
          "name": "_lockPeriods",
          "type": "uint256[]",
          "internalType": "uint256[]"
        }
      ],
      "outputs": [],
      "stateMutability": "nonpayable"
    },
    {
      "type": "function",
      "name": "isSupportedLockPeriod",
      "inputs": [
        {
          "name": "period",
          "type": "uint256",
          "internalType": "uint256"
        }
      ],
      "outputs": [
        {
          "name": "",
          "type": "bool",
          "internalType": "bool"
        }
      ],
      "stateMutability": "view"
    },
    {
      "type": "function",
      "name": "lockPeriods",
      "inputs": [
        {
          "name": "",
          "type": "uint256",
          "internalType": "uint256"
        }
      ],
      "outputs": [
        {
          "name": "",
          "type": "uint256",
          "internalType": "uint256"
        }
      ],
      "stateMutability": "view"
    },
    {
      "type": "function",
      "name": "owner",
      "inputs": [],
      "outputs": [
        {
          "name": "",
          "type": "address",
          "internalType": "address"
        }
      ],
      "stateMutability": "view"
    },
    {
      "type": "function",
      "name": "pause",
      "inputs": [],
      "outputs": [],
      "stateMutability": "nonpayable"
    },
    {
      "type": "function",
      "name": "paused",
      "inputs": [],
      "outputs": [
        {
          "name": "",
          "type": "bool",
          "internalType": "bool"
        }
      ],
      "stateMutability": "view"
    },
    {
      "type": "function",
      "name": "periods",
      "inputs": [
        {
          "name": "",
          "type": "uint256",
          "internalType": "uint256"
        }
      ],
      "outputs": [
        {
          "name": "rewardPool",
          "type": "uint256",
          "internalType": "uint256"
        },
        {
          "name": "totalDeposits",
          "type": "uint256",
          "internalType": "uint256"
        }
      ],
      "stateMutability": "view"
    },
    {
      "type": "function",
      "name": "positions",
      "inputs": [
        {
          "name": "",
          "type": "bytes16",
          "internalType": "bytes16"
        }
      ],
      "outputs": [
        {
          "name": "id",
          "type": "bytes16",
          "internalType": "bytes16"
        },
        {
          "name": "owner",
          "type": "address",
          "internalType": "address"
        },
        {
          "name": "amount",
          "type": "uint256",
          "internalType": "uint256"
        },
        {
          "name": "liquidityIndex",
          "type": "uint256",
          "internalType": "uint256"
        },
        {
          "name": "entryTime",
          "type": "uint256",
          "internalType": "uint256"
        },
        {
          "name": "finalizationTime",
          "type": "uint256",
          "internalType": "uint256"
        },
        {
          "name": "isActive",
          "type": "bool",
          "internalType": "bool"
        },
        {
          "name": "lockPeriod",
          "type": "uint256",
          "internalType": "uint256"
        }
      ],
      "stateMutability": "view"
    },
    {
      "type": "function",
      "name": "protocolFees",
      "inputs": [],
      "outputs": [
        {
          "name": "",
          "type": "uint256",
          "internalType": "uint256"
        }
      ],
      "stateMutability": "view"
    },
    {
      "type": "function",
      "name": "renounceOwnership",
      "inputs": [],
      "outputs": [],
      "stateMutability": "nonpayable"
    },
    {
      "type": "function",
      "name": "token",
      "inputs": [],
      "outputs": [
        {
          "name": "",
          "type": "address",
          "internalType": "contract IERC20"
        }
      ],
      "stateMutability": "view"
    },
    {
      "type": "function",
      "name": "transferOwnership",
      "inputs": [
        {
          "name": "newOwner",
          "type": "address",
          "internalType": "address"
        }
      ],
      "outputs": [],
      "stateMutability": "nonpayable"
    },
    {
      "type": "function",
      "name": "unpause",
      "inputs": [],
      "outputs": [],
      "stateMutability": "nonpayable"
    },
    {
      "type": "function",
      "name": "updateEarlyWithdrawalFee",
      "inputs": [
        {
          "name": "newFee",
          "type": "uint256",
          "internalType": "uint256"
        }
      ],
      "outputs": [],
      "stateMutability": "nonpayable"
    },
    {
      "type": "function",
      "name": "userTotalDepositsPerLockPeriod",
      "inputs": [
        {
          "name": "",
          "type": "address",
          "internalType": "address"
        },
        {
          "name": "",
          "type": "uint256",
          "internalType": "uint256"
        }
      ],
      "outputs": [
        {
          "name": "",
          "type": "uint256",
          "internalType": "uint256"
        }
      ],
      "stateMutability": "view"
    },
    {
      "type": "function",
      "name": "withdraw",
      "inputs": [
        {
          "name": "depositId",
          "type": "bytes16",
          "internalType": "bytes16"
        }
      ],
      "outputs": [
        {
          "name": "",
          "type": "uint256",
          "internalType": "uint256"
        }
      ],
      "stateMutability": "nonpayable"
    },
    {
      "type": "function",
      "name": "withdrawProtocolFees",
      "inputs": [],
      "outputs": [],
      "stateMutability": "nonpayable"
    },
    {
      "type": "event",
      "name": "EarlyWithdrawalFeeUpdated",
      "inputs": [
        {
          "name": "newFee",
          "type": "uint256",
          "indexed": false,
          "internalType": "uint256"
        }
      ],
      "anonymous": false
    },
    {
      "type": "event",
      "name": "FundsDeposited",
      "inputs": [
        {
          "name": "depositId",
          "type": "bytes16",
          "indexed": true,
          "internalType": "bytes16"
        },
        {
          "name": "owner",
          "type": "address",
          "indexed": true,
          "internalType": "address"
        },
        {
          "name": "amount",
          "type": "uint256",
          "indexed": false,
          "internalType": "uint256"
        },
        {
          "name": "lockPeriod",
          "type": "uint256",
          "indexed": false,
          "internalType": "uint256"
        }
      ],
      "anonymous": false
    },
    {
      "type": "event",
      "name": "FundsWithdrawn",
      "inputs": [
        {
          "name": "depositId",
          "type": "bytes16",
          "indexed": true,
          "internalType": "bytes16"
        },
        {
          "name": "owner",
          "type": "address",
          "indexed": true,
          "internalType": "address"
        },
        {
          "name": "amount",
          "type": "uint256",
          "indexed": false,
          "internalType": "uint256"
        },
        {
          "name": "interest",
          "type": "uint256",
          "indexed": false,
          "internalType": "uint256"
        },
        {
          "name": "reward",
          "type": "uint256",
          "indexed": false,
          "internalType": "uint256"
        },
        {
          "name": "lockPeriod",
          "type": "uint256",
          "indexed": false,
          "internalType": "uint256"
        }
      ],
      "anonymous": false
    },
    {
      "type": "event",
      "name": "Initialized",
      "inputs": [
        {
          "name": "version",
          "type": "uint64",
          "indexed": false,
          "internalType": "uint64"
        }
      ],
      "anonymous": false
    },
    {
      "type": "event",
      "name": "LockPeriodAdded",
      "inputs": [
        {
          "name": "newLockPeriod",
          "type": "uint256",
          "indexed": false,
          "internalType": "uint256"
        }
      ],
      "anonymous": false
    },
    {
      "type": "event",
      "name": "OwnershipTransferred",
      "inputs": [
        {
          "name": "previousOwner",
          "type": "address",
          "indexed": true,
          "internalType": "address"
        },
        {
          "name": "newOwner",
          "type": "address",
          "indexed": true,
          "internalType": "address"
        }
      ],
      "anonymous": false
    },
    {
      "type": "event",
      "name": "Paused",
      "inputs": [
        {
          "name": "account",
          "type": "address",
          "indexed": false,
          "internalType": "address"
        }
      ],
      "anonymous": false
    },
    {
      "type": "event",
      "name": "ProtocolFeesUpdated",
      "inputs": [
        {
          "name": "newProtocolFees",
          "type": "uint256",
          "indexed": false,
          "internalType": "uint256"
        }
      ],
      "anonymous": false
    },
    {
      "type": "event",
      "name": "ProtocolFeesWithdrawn",
      "inputs": [
        {
          "name": "protocolFees",
          "type": "uint256",
          "indexed": false,
          "internalType": "uint256"
        }
      ],
      "anonymous": false
    },
    {
      "type": "event",
      "name": "RewardDistributed",
      "inputs": [
        {
          "name": "depositId",
          "type": "bytes16",
          "indexed": true,
          "internalType": "bytes16"
        },
        {
          "name": "owner",
          "type": "address",
          "indexed": true,
          "internalType": "address"
        },
        {
          "name": "reward",
          "type": "uint256",
          "indexed": false,
          "internalType": "uint256"
        },
        {
          "name": "lockPeriod",
          "type": "uint256",
          "indexed": false,
          "internalType": "uint256"
        }
      ],
      "anonymous": false
    },
    {
      "type": "event",
      "name": "RewardsAdded",
      "inputs": [
        {
          "name": "rewardAmount",
          "type": "uint256",
          "indexed": false,
          "internalType": "uint256"
        },
        {
          "name": "lockPeriod",
          "type": "uint256",
          "indexed": false,
          "internalType": "uint256"
        }
      ],
      "anonymous": false
    },
    {
      "type": "event",
      "name": "Unpaused",
      "inputs": [
        {
          "name": "account",
          "type": "address",
          "indexed": false,
          "internalType": "address"
        }
      ],
      "anonymous": false
    },
    {
      "type": "error",
      "name": "DepositAlreadyExists",
      "inputs": []
    },
    {
      "type": "error",
      "name": "EnforcedPause",
      "inputs": []
    },
    {
      "type": "error",
      "name": "ExpectedPause",
      "inputs": []
    },
    {
      "type": "error",
      "name": "InvalidAddress",
      "inputs": []
    },
    {
      "type": "error",
      "name": "InvalidAmount",
      "inputs": []
    },
    {
      "type": "error",
      "name": "InvalidDepositId",
      "inputs": []
    },
    {
      "type": "error",
      "name": "InvalidFee",
      "inputs": []
    },
    {
      "type": "error",
      "name": "InvalidInitialization",
      "inputs": []
    },
    {
      "type": "error",
      "name": "InvalidLockPeriod",
      "inputs": []
    },
    {
      "type": "error",
      "name": "NotInitializing",
      "inputs": []
    },
    {
      "type": "error",
      "name": "NotPositionOwner",
      "inputs": []
    },
    {
      "type": "error",
      "name": "OwnableInvalidOwner",
      "inputs": [
        {
          "name": "owner",
          "type": "address",
          "internalType": "address"
        }
      ]
    },
    {
      "type": "error",
      "name": "OwnableUnauthorizedAccount",
      "inputs": [
        {
          "name": "account",
          "type": "address",
          "internalType": "address"
        }
      ]
    },
    {
      "type": "error",
      "name": "PositionAlreadyWithdrawn",
      "inputs": []
    },
    {
      "type": "error",
      "name": "PositionNotFound",
      "inputs": []
    },
    {
      "type": "error",
      "name": "ReentrancyGuardReentrantCall",
      "inputs": []
    },
    {
      "type": "error",
      "name": "SafeERC20FailedOperation",
      "inputs": [
        {
          "name": "token",
          "type": "address",
          "internalType": "address"
        }
      ]
    }
  ],
  "bytecode": {
    "object": "0x608080604052346019575f600255611878908161001e8239f35b5f80fdfe6080806040526004361015610012575f80fd5b5f905f3560e01c908162b45a6b146110a4575080630d08aa0f1461101957806316330d4014610ffb5780631ad8b03b14610fdd57806334b2cf2a14610f3c5780633632e6c614610ed5578063368b29ef14610eac57806336e3a81114610af15780633f4ba83a14610a715780634c8f2a7814610a375780635c975abb14610a08578063715018a61461099f5780638456cb591461092c5780638795cccb146108845780638da5cb5b1461084f5780639d7c47191461080c5780639dda0db31461076e578063a03e4bc314610745578063c4b475e414610661578063e1f1c4a714610644578063e337fb5c14610259578063ea4a110414610225578063f2fde38b146101f8578063fc0c546a146101d15763fc41aa0914610130575f80fd5b346101ce5760403660031901126101ce5760243560043561014f611696565b61015881611488565b156101bf57816040916101997f40df43107e8b4d467127964bd3c966687c0a6a39aaede970755397fd09535e989460018060a01b03875416309033906115d0565b80855260066020528285206101af838254611467565b905582519182526020820152a180f35b632a82a34f60e01b8352600483fd5b80fd5b50346101ce57806003193601126101ce57546040516001600160a01b039091168152602090f35b50346101ce5760203660031901126101ce57610222610215611451565b61021d611696565b611500565b80f35b50346101ce5760203660031901126101ce576040809160043581526006602052206001815491015482519182526020820152f35b50346101ce5760603660031901126101ce57610273611451565b6024356001600160a01b038116908190036104ee576044359067ffffffffffffffff821161064057366023830112156106405781600401359067ffffffffffffffff821161062c578160051b92604051926102d16020860185611403565b835260208301602481958301019136831161062857602401905b828210610618575050505f5160206118235f395f51905f52549360ff8560401c16159467ffffffffffffffff811680159081610610575b6001149081610606575b1590816105fd575b506105ee5767ffffffffffffffff1981166001175f5160206118235f395f51905f5255856105c2575b50610366611797565b61036e611797565b61037733611500565b61037f611797565b610387611797565b61038f611797565b60015f5160206118035f395f51905f52556001600160a01b0316801580156105ba575b6105ab576001600160601b0360a01b8654161785556001600160601b0360a01b6001541617600155519067ffffffffffffffff821161059757600160401b82116105975760055482600555808310610539575b5060058452835b828110610505575050825460015460405163095ea7b360e01b81526001600160a01b0391821660048201525f1960248201529250602091839160449183918891165af180156104fa576104ba575b506104625780f35b68ff0000000000000000195f5160206118235f395f51905f5254165f5160206118235f395f51905f52557fc7f505b2f371ae2175ee4913f4499e1f2633a7b5936321eed1cdaeb6115181d2602060405160018152a180f35b6020813d6020116104f2575b816104d360209383611403565b810103126104ee5751801515036104ea575f61045a565b5080fd5b8280fd5b3d91506104c6565b6040513d85823e3d90fd5b60019060208351930192817f036b6384b5eca791c62761152d0c79bb0604c104a5fb6f4eb0703f3154bb3db001550161040c565b7f036b6384b5eca791c62761152d0c79bb0604c104a5fb6f4eb0703f3154bb3db001827f036b6384b5eca791c62761152d0c79bb0604c104a5fb6f4eb0703f3154bb3db0015b81811061058c5750610405565b85815560010161057f565b634e487b7160e01b84526041600452602484fd5b63e6c4247b60e01b8652600486fd5b5081156103b2565b68ffffffffffffffffff191668010000000000000001175f5160206118235f395f51905f52555f61035d565b63f92ee8a960e01b8752600487fd5b9050155f610334565b303b15915061032c565b879150610322565b81358152602091820191016102eb565b8780fd5b634e487b7160e01b85526041600452602485fd5b8380fd5b50346101ce57806003193601126101ce5760206040516127108152f35b50346101ce5760203660031901126101ce5760043561067e611696565b61068781611488565b61070057600554600160401b8110156106ec577f23c2ee36c460d523037216f3302dbaed4a5237cddfc6b97b53561c8d8a198f9c916106ce82600160209401600555611425565b81549060031b9083821b915f19901b1916179055604051908152a180f35b634e487b7160e01b83526041600452602483fd5b60405162461bcd60e51b815260206004820152601d60248201527f4c6f636b20706572696f6420616c726561647920737570706f727465640000006044820152606490fd5b50346101ce57806003193601126101ce576001546040516001600160a01b039091168152602090f35b50346101ce5760203660031901126101ce576001600160801b03196107916113ec565b168152600460205260408120805460801b6001600160801b031916156107fd576040916107d7600360028401549301546107d26107cc611616565b856114cf565b6114e2565b91808311156107f7576107eb9150826114c2565b82519182526020820152f35b506107eb565b636ec9be1160e01b8252600482fd5b50346101ce5760403660031901126101ce576020906040906001600160a01b03610834611451565b16815260078352818120602435825283522054604051908152f35b50346101ce57806003193601126101ce575f5160206117c35f395f51905f52546040516001600160a01b039091168152602090f35b50346101ce57806003193601126101ce5761089d611696565b6108a56115a9565b600381905580545f5160206117c35f395f51905f525460405163a9059cbb60e01b60208201526001600160a01b039182166024820152604480820185905281526108fc929091166108f7606483611403565b61173f565b7f951a86b0458e05dec69512ef305168520351a732ff2c01b3f0e3d19914e4227a6020600354604051908152a180f35b50346101ce57806003193601126101ce57610945611696565b61094d6115a9565b600160ff195f5160206117e35f395f51905f525416175f5160206117e35f395f51905f52557f62e78cea01bee320cd4e420270b5ea74000d11b0c9f74754ebdbfc544b05a2586020604051338152a180f35b50346101ce57806003193601126101ce576109b8611696565b5f5160206117c35f395f51905f5280546001600160a01b0319811690915581906001600160a01b03167f8be0079c531659141344cd1fd0a4f28419497f9722a3daafe3b4186f6b6457e08280a380f35b50346101ce57806003193601126101ce57602060ff5f5160206117e35f395f51905f5254166040519015158152f35b50346101ce5760203660031901126101ce57600435906005548210156101ce576020610a6283611425565b90549060031b1c604051908152f35b50346101ce57806003193601126101ce57610a8a611696565b5f5160206117e35f395f51905f525460ff811615610ae25760ff19165f5160206117e35f395f51905f52557f5db9ee0a495bf2e6ff9c91a7834c1ba4fdd244a5e8aa4e537bd38aeae4b073aa6020604051338152a180f35b638dfc202b60e01b8252600482fd5b50346101ce5760203660031901126101ce57610b0b6113ec565b610b13611571565b610b1b6115a9565b6001600160801b031916908181526004602052604081206001600160801b0319815460801b16156107fd57600681019283549160ff831615610e9d5760018101546001600160a01b03163303610e8e5760078101549060028101805496610b9160038401546107d2610b8b611616565b8b6114cf565b9780891115610e8657610ba490896114c2565b955b60ff1916905585546040516370a0823160e01b81523060048201526001600160a01b03909116976020826024818c5afa918215610e7b578892610e46575b50602090606460018060a01b03600154169a8a6040519c8d948593631a4ca37b60e21b8552600485015260248401523060448401525af18015610e0957610e14575b86546040516370a0823160e01b81523060048201529850602090899060249082906001600160a01b03165afa978815610e09578798610dcf575b50610c6e86916020996114c2565b60058894015442105f14610d7457610d1f91610ccc91610cc4612710610c96600254856114cf565b048b610cba6040610ca784886114c2565b928c815260206006905220918254611467565b9055600354611467565b6003556114c2565b8097835433825260078b52604082208783528b52610cef604083209182546114c2565b9055835486825260068b52610d0c600160408420019182546114c2565b90555433906001600160a01b0316611704565b549360405194855286850152604084015260608301527f9c1fe4cf98cad3677759726771b996398447649e0fe71d051afde61f5fc8f5e160803393a360015f5160206118035f395f51905f5255604051908152f35b925050610dca610d8f610d888584546116c9565b8094611467565b878582995260068a5260408120610da78682546114c2565b9055835433825260078b52604082208783528b52610cef604083209182546114c2565b610d1f565b97506020883d602011610e01575b81610dea60209383611403565b81010312610dfd57965196610c6e610c60565b5f80fd5b3d9150610ddd565b6040513d89823e3d90fd5b6020883d602011610e3e575b81610e2d60209383611403565b81010312610dfd5760249750610c26565b3d9150610e20565b9091506020813d602011610e73575b81610e6260209383611403565b81010312610dfd5751906020610be4565b3d9150610e55565b6040513d8a823e3d90fd5b508695610ba6565b6370d645e360e01b8452600484fd5b6304fc265760e11b8452600484fd5b50346101ce5760203660031901126101ce576020610ecb600435611488565b6040519015158152f35b50346101ce5760203660031901126101ce57600435610ef2611696565b6127108111610f2d576020817f45108bbe17e2c6b15aef1a0c3b1668a1bc7f6d41aeb46a048100e839ba6fdac892600255604051908152a180f35b6358d620b360e01b8252600482fd5b50346101ce5760203660031901126101ce576040610100916001600160801b0319610f656113ec565b168152600460205220805460801b9060018060a01b036001820154169060028101546003820154600483015490600584015492600760ff60068701541695015495604051976001600160801b0319168852602088015260408701526060860152608085015260a0840152151560c083015260e0820152f35b50346101ce57806003193601126101ce576020600354604051908152f35b50346101ce57806003193601126101ce576020600254604051908152f35b50346101ce5760203660031901126101ce57604060e0916001600160801b03196110416113ec565b16815260046020522060018060a01b036001820154169060028101549060038101546004820154600583015491600760ff600686015416940154946040519687526020870152604086015260608501526080840152151560a083015260c0820152f35b905034610dfd5760a0366003190112610dfd576110bf6113ec565b602435916044359160843567ffffffffffffffff8111610dfd5736602382011215610dfd57806004013567ffffffffffffffff81116113d85761110c601f8201601f191660200185611403565b80845260208401913660248383010111610dfd57815f92602460209301853785010152611137611571565b61113f6115a9565b84156113c9576001600160801b031982169283156113ba57835f5260046020526001600160801b031960405f205460801b166113ab5761117e85611488565b1561139c57835f52600460205260405f209260801c6001600160801b031984541617835560018301336001600160601b0360a01b8254161790558560028401554260048401556111ce8542611467565b600584015584600784015560068301600160ff19825416179055335f52600760205260405f20855f5260205260405f20611209878254611467565b9055845f526006602052600160405f2001611225878254611467565b90555f546001600160a01b031691823b15610dfd5760c4925f9283604051958680958194639fd5a6cf60e01b83523360048401523060248401528d6044840152606435606484015260a060848401525180918160a48501528484015e8181018301849052601f01601f191681010301925af1611387575b506112b284303360018060a01b038954166115d0565b600154855486916001600160a01b039182169116803b156104ee5760848392604051948593849263617ba03760e01b845260048401528a60248401523060448401528160648401525af1801561137c57611363575b50602094506003611316611616565b91015560405191838352848301527fefb7f2ff0161ecc1db35c0db2f502900e05a46b4f111f86d68dbf600404090ec60403393a360015f5160206118035f395f51905f5255604051908152f35b61136e868092611403565b6113785784611307565b8480fd5b6040513d88823e3d90fd5b6113949195505f90611403565b5f935f61129c565b632a82a34f60e01b5f5260045ffd5b63c44bd76560e01b5f5260045ffd5b63a2ca05e160e01b5f5260045ffd5b63162908e360e11b5f5260045ffd5b634e487b7160e01b5f52604160045260245ffd5b600435906001600160801b031982168203610dfd57565b90601f8019910116810190811067ffffffffffffffff8211176113d857604052565b60055481101561143d5760055f5260205f2001905f90565b634e487b7160e01b5f52603260045260245ffd5b600435906001600160a01b0382168203610dfd57565b9190820180921161147457565b634e487b7160e01b5f52601160045260245ffd5b600554905f5b82811061149c575050505f90565b816114a682611425565b90549060031b1c146114ba5760010161148e565b505050600190565b9190820391821161147457565b8181029291811591840414171561147457565b81156114ec570490565b634e487b7160e01b5f52601260045260245ffd5b6001600160a01b0316801561155e575f5160206117c35f395f51905f5280546001600160a01b0319811683179091556001600160a01b03167f8be0079c531659141344cd1fd0a4f28419497f9722a3daafe3b4186f6b6457e05f80a3565b631e4fbdf760e01b5f525f60045260245ffd5b60025f5160206118035f395f51905f52541461159a5760025f5160206118035f395f51905f5255565b633ee5aeb560e01b5f5260045ffd5b60ff5f5160206117e35f395f51905f5254166115c157565b63d93c066560e01b5f5260045ffd5b6040516323b872dd60e01b60208201526001600160a01b039283166024820152929091166044830152606480830193909352918152611614916108f7608483611403565b565b6001545f546040516335ea6a7560e01b81526001600160a01b039182166004820152916101809183916024918391165afa90811561168b575f91611658575090565b9050610180813d8211611683575b816116746101809383611403565b81010312610dfd576020015190565b3d9150611666565b6040513d5f823e3d90fd5b5f5160206117c35f395f51905f52546001600160a01b031633036116b657565b63118cdaa760e01b5f523360045260245ffd5b90805f526006602052600160405f2001549081156116fd576116fa926107d2915f52600660205260405f20546114cf565b90565b5050505f90565b60405163a9059cbb60e01b60208201526001600160a01b039092166024830152604480830193909352918152611614916108f7606483611403565b905f602091828151910182855af11561168b575f513d61178e57506001600160a01b0381163b155b61176e5750565b635274afe760e01b5f9081526001600160a01b0391909116600452602490fd5b60011415611767565b60ff5f5160206118235f395f51905f525460401c16156117b357565b631afcd79f60e31b5f5260045ffdfe9016d09d72d40fdae2fd8ceac6b6234c7706214fd39c1cd1e609a0528c199300cd5ed15c6e187e77e9aee88184c21f4f2182ab5827cb3b7e07fbedcd63f033009b779b17422d0df92223018b32b4d1fa46e071723d6817e2486d003becc55f00f0c57e16840df040f15088dc2f81fe391c3923bec73e23a9662efc9c229c6a00a26469706673582212203963020886427c064d6052723c63dc85cc8bead15c014a11bbebdf974d21c04464736f6c634300081e0033",
    "linkReferences": {}
  },
  "methodIdentifiers": {
    "BASIS_POINTS()": "e1f1c4a7",
    "aavePool()": "a03e4bc3",
    "addLockPeriod(uint256)": "c4b475e4",
    "addRewards(uint256,uint256)": "fc41aa09",
    "deposit(bytes16,uint256,uint256,uint256,bytes)": "00b45a6b",
    "earlyWithdrawalFee()": "16330d40",
    "getPosition(bytes16)": "0d08aa0f",
    "getPositionValue(bytes16)": "9dda0db3",
    "initialize(address,address,uint256[])": "e337fb5c",
    "isSupportedLockPeriod(uint256)": "368b29ef",
    "lockPeriods(uint256)": "4c8f2a78",
    "owner()": "8da5cb5b",
    "pause()": "8456cb59",
    "paused()": "5c975abb",
    "periods(uint256)": "ea4a1104",
    "positions(bytes16)": "34b2cf2a",
    "protocolFees()": "1ad8b03b",
    "renounceOwnership()": "715018a6",
    "token()": "fc0c546a",
    "transferOwnership(address)": "f2fde38b",
    "unpause()": "3f4ba83a",
    "updateEarlyWithdrawalFee(uint256)": "3632e6c6",
    "userTotalDepositsPerLockPeriod(address,uint256)": "9d7c4719",
    "withdraw(bytes16)": "36e3a811",
    "withdrawProtocolFees()": "8795cccb"
  },
  "id": 52
}