{
  "abi": [
    {
      "type": "constructor",
      "inputs": [],
      "stateMutability": "nonpayable"
    },
    {
      "type": "function",
      "name": "BASIS_POINTS",
      "inputs": [],
      "outputs": [
        {
          "name": "",
          "type": "uint256",
          "internalType": "uint256"
        }
      ],
      "stateMutability": "view"
    },
    {
      "type": "function",
      "name": "accessManagedMSV",
      "inputs": [],
      "outputs": [
        {
          "name": "",
          "type": "address",
          "internalType": "contract IAccessManagedMSV"
        }
      ],
      "stateMutability": "view"
    },
    {
      "type": "function",
      "name": "addLockPeriod",
      "inputs": [
        {
          "name": "newLockPeriod",
          "type": "uint256",
          "internalType": "uint256"
        }
      ],
      "outputs": [],
      "stateMutability": "nonpayable"
    },
    {
      "type": "function",
      "name": "addRewards",
      "inputs": [
        {
          "name": "period",
          "type": "uint256",
          "internalType": "uint256"
        },
        {
          "name": "rewardAmount",
          "type": "uint256",
          "internalType": "uint256"
        }
      ],
      "outputs": [],
      "stateMutability": "nonpayable"
    },
    {
      "type": "function",
      "name": "deposit",
      "inputs": [
        {
          "name": "amount",
          "type": "uint256",
          "internalType": "uint256"
        },
        {
          "name": "period",
          "type": "uint256",
          "internalType": "uint256"
        },
        {
          "name": "deadline",
          "type": "uint256",
          "internalType": "uint256"
        },
        {
          "name": "signature",
          "type": "bytes",
          "internalType": "bytes"
        }
      ],
      "outputs": [
        {
          "name": "sharesToMint",
          "type": "uint256",
          "internalType": "uint256"
        }
      ],
      "stateMutability": "nonpayable"
    },
    {
      "type": "function",
      "name": "depositNonces",
      "inputs": [
        {
          "name": "",
          "type": "address",
          "internalType": "address"
        }
      ],
      "outputs": [
        {
          "name": "",
          "type": "uint256",
          "internalType": "uint256"
        }
      ],
      "stateMutability": "view"
    },
    {
      "type": "function",
      "name": "earlyWithdrawalFee",
      "inputs": [],
      "outputs": [
        {
          "name": "",
          "type": "uint256",
          "internalType": "uint256"
        }
      ],
      "stateMutability": "view"
    },
    {
      "type": "function",
      "name": "initialize",
      "inputs": [
        {
          "name": "_token",
          "type": "address",
          "internalType": "address"
        },
        {
          "name": "_accessManagedMSV",
          "type": "address",
          "internalType": "address"
        },
        {
          "name": "_lockPeriods",
          "type": "uint256[]",
          "internalType": "uint256[]"
        }
      ],
      "outputs": [],
      "stateMutability": "nonpayable"
    },
    {
      "type": "function",
      "name": "isSupportedLockPeriod",
      "inputs": [
        {
          "name": "",
          "type": "uint256",
          "internalType": "uint256"
        }
      ],
      "outputs": [
        {
          "name": "",
          "type": "bool",
          "internalType": "bool"
        }
      ],
      "stateMutability": "view"
    },
    {
      "type": "function",
      "name": "owner",
      "inputs": [],
      "outputs": [
        {
          "name": "",
          "type": "address",
          "internalType": "address"
        }
      ],
      "stateMutability": "view"
    },
    {
      "type": "function",
      "name": "pause",
      "inputs": [],
      "outputs": [],
      "stateMutability": "nonpayable"
    },
    {
      "type": "function",
      "name": "paused",
      "inputs": [],
      "outputs": [
        {
          "name": "",
          "type": "bool",
          "internalType": "bool"
        }
      ],
      "stateMutability": "view"
    },
    {
      "type": "function",
      "name": "periods",
      "inputs": [
        {
          "name": "",
          "type": "uint256",
          "internalType": "uint256"
        }
      ],
      "outputs": [
        {
          "name": "rewardPool",
          "type": "uint256",
          "internalType": "uint256"
        },
        {
          "name": "totalShares",
          "type": "uint256",
          "internalType": "uint256"
        }
      ],
      "stateMutability": "view"
    },
    {
      "type": "function",
      "name": "positions",
      "inputs": [
        {
          "name": "",
          "type": "bytes32",
          "internalType": "bytes32"
        }
      ],
      "outputs": [
        {
          "name": "owner",
          "type": "address",
          "internalType": "address"
        },
        {
          "name": "amount",
          "type": "uint256",
          "internalType": "uint256"
        },
        {
          "name": "shares",
          "type": "uint256",
          "internalType": "uint256"
        },
        {
          "name": "finalizationTime",
          "type": "uint256",
          "internalType": "uint256"
        },
        {
          "name": "lockPeriod",
          "type": "uint256",
          "internalType": "uint256"
        }
      ],
      "stateMutability": "view"
    },
    {
      "type": "function",
      "name": "protocolFees",
      "inputs": [],
      "outputs": [
        {
          "name": "",
          "type": "uint256",
          "internalType": "uint256"
        }
      ],
      "stateMutability": "view"
    },
    {
      "type": "function",
      "name": "renounceOwnership",
      "inputs": [],
      "outputs": [],
      "stateMutability": "nonpayable"
    },
    {
      "type": "function",
      "name": "token",
      "inputs": [],
      "outputs": [
        {
          "name": "",
          "type": "address",
          "internalType": "contract IERC20"
        }
      ],
      "stateMutability": "view"
    },
    {
      "type": "function",
      "name": "transferOwnership",
      "inputs": [
        {
          "name": "newOwner",
          "type": "address",
          "internalType": "address"
        }
      ],
      "outputs": [],
      "stateMutability": "nonpayable"
    },
    {
      "type": "function",
      "name": "unpause",
      "inputs": [],
      "outputs": [],
      "stateMutability": "nonpayable"
    },
    {
      "type": "function",
      "name": "updateEarlyWithdrawalFee",
      "inputs": [
        {
          "name": "newFee",
          "type": "uint256",
          "internalType": "uint256"
        }
      ],
      "outputs": [],
      "stateMutability": "nonpayable"
    },
    {
      "type": "function",
      "name": "withdraw",
      "inputs": [
        {
          "name": "depositId",
          "type": "bytes32",
          "internalType": "bytes32"
        }
      ],
      "outputs": [
        {
          "name": "amountToTransfer",
          "type": "uint256",
          "internalType": "uint256"
        }
      ],
      "stateMutability": "nonpayable"
    },
    {
      "type": "function",
      "name": "withdrawProtocolFees",
      "inputs": [],
      "outputs": [],
      "stateMutability": "nonpayable"
    },
    {
      "type": "event",
      "name": "EarlyWithdrawalFeeUpdated",
      "inputs": [
        {
          "name": "newFee",
          "type": "uint256",
          "indexed": false,
          "internalType": "uint256"
        }
      ],
      "anonymous": false
    },
    {
      "type": "event",
      "name": "FundsDeposited",
      "inputs": [
        {
          "name": "depositId",
          "type": "bytes32",
          "indexed": true,
          "internalType": "bytes32"
        },
        {
          "name": "owner",
          "type": "address",
          "indexed": true,
          "internalType": "address"
        },
        {
          "name": "amount",
          "type": "uint256",
          "indexed": false,
          "internalType": "uint256"
        },
        {
          "name": "shares",
          "type": "uint256",
          "indexed": false,
          "internalType": "uint256"
        }
      ],
      "anonymous": false
    },
    {
      "type": "event",
      "name": "FundsWithdrawn",
      "inputs": [
        {
          "name": "depositId",
          "type": "bytes32",
          "indexed": true,
          "internalType": "bytes32"
        },
        {
          "name": "owner",
          "type": "address",
          "indexed": true,
          "internalType": "address"
        },
        {
          "name": "transferAmount",
          "type": "uint256",
          "indexed": false,
          "internalType": "uint256"
        },
        {
          "name": "interest",
          "type": "uint256",
          "indexed": false,
          "internalType": "uint256"
        },
        {
          "name": "reward",
          "type": "uint256",
          "indexed": false,
          "internalType": "uint256"
        }
      ],
      "anonymous": false
    },
    {
      "type": "event",
      "name": "Initialized",
      "inputs": [
        {
          "name": "version",
          "type": "uint64",
          "indexed": false,
          "internalType": "uint64"
        }
      ],
      "anonymous": false
    },
    {
      "type": "event",
      "name": "LockPeriodAdded",
      "inputs": [
        {
          "name": "newLockPeriod",
          "type": "uint256",
          "indexed": false,
          "internalType": "uint256"
        }
      ],
      "anonymous": false
    },
    {
      "type": "event",
      "name": "OwnershipTransferred",
      "inputs": [
        {
          "name": "previousOwner",
          "type": "address",
          "indexed": true,
          "internalType": "address"
        },
        {
          "name": "newOwner",
          "type": "address",
          "indexed": true,
          "internalType": "address"
        }
      ],
      "anonymous": false
    },
    {
      "type": "event",
      "name": "Paused",
      "inputs": [
        {
          "name": "account",
          "type": "address",
          "indexed": false,
          "internalType": "address"
        }
      ],
      "anonymous": false
    },
    {
      "type": "event",
      "name": "ProtocolFeesAdded",
      "inputs": [
        {
          "name": "protocolFees",
          "type": "uint256",
          "indexed": false,
          "internalType": "uint256"
        }
      ],
      "anonymous": false
    },
    {
      "type": "event",
      "name": "ProtocolFeesWithdrawn",
      "inputs": [
        {
          "name": "protocolFees",
          "type": "uint256",
          "indexed": false,
          "internalType": "uint256"
        }
      ],
      "anonymous": false
    },
    {
      "type": "event",
      "name": "RewardDistributed",
      "inputs": [
        {
          "name": "depositId",
          "type": "bytes32",
          "indexed": true,
          "internalType": "bytes32"
        },
        {
          "name": "owner",
          "type": "address",
          "indexed": true,
          "internalType": "address"
        },
        {
          "name": "reward",
          "type": "uint256",
          "indexed": false,
          "internalType": "uint256"
        }
      ],
      "anonymous": false
    },
    {
      "type": "event",
      "name": "RewardsAdded",
      "inputs": [
        {
          "name": "rewardAmount",
          "type": "uint256",
          "indexed": false,
          "internalType": "uint256"
        }
      ],
      "anonymous": false
    },
    {
      "type": "event",
      "name": "Unpaused",
      "inputs": [
        {
          "name": "account",
          "type": "address",
          "indexed": false,
          "internalType": "address"
        }
      ],
      "anonymous": false
    },
    {
      "type": "error",
      "name": "DepositAlreadyExists",
      "inputs": []
    },
    {
      "type": "error",
      "name": "EnforcedPause",
      "inputs": []
    },
    {
      "type": "error",
      "name": "ExpectedPause",
      "inputs": []
    },
    {
      "type": "error",
      "name": "InvalidAddress",
      "inputs": []
    },
    {
      "type": "error",
      "name": "InvalidAmount",
      "inputs": []
    },
    {
      "type": "error",
      "name": "InvalidDepositId",
      "inputs": []
    },
    {
      "type": "error",
      "name": "InvalidFee",
      "inputs": []
    },
    {
      "type": "error",
      "name": "InvalidInitialization",
      "inputs": []
    },
    {
      "type": "error",
      "name": "NotInitializing",
      "inputs": []
    },
    {
      "type": "error",
      "name": "NotPositionOwner",
      "inputs": []
    },
    {
      "type": "error",
      "name": "OwnableInvalidOwner",
      "inputs": [
        {
          "name": "owner",
          "type": "address",
          "internalType": "address"
        }
      ]
    },
    {
      "type": "error",
      "name": "OwnableUnauthorizedAccount",
      "inputs": [
        {
          "name": "account",
          "type": "address",
          "internalType": "address"
        }
      ]
    },
    {
      "type": "error",
      "name": "PeriodNotSupported",
      "inputs": []
    },
    {
      "type": "error",
      "name": "PositionAlreadyWithdrawn",
      "inputs": []
    },
    {
      "type": "error",
      "name": "PositionNotFound",
      "inputs": []
    },
    {
      "type": "error",
      "name": "ReentrancyGuardReentrantCall",
      "inputs": []
    },
    {
      "type": "error",
      "name": "SafeERC20FailedOperation",
      "inputs": [
        {
          "name": "token",
          "type": "address",
          "internalType": "address"
        }
      ]
    }
  ],
  "bytecode": {
    "object": "0x60806040523461002757610011610036565b61001961002c565b612b6f61025c8239612b6f90f35b610032565b60405190565b5f80fd5b61003e610132565b565b60401c90565b60ff1690565b61005861005d91610040565b610046565b90565b61006a905461004c565b90565b5f0190565b5f1c90565b60018060401b031690565b61008e61009391610072565b610077565b90565b6100a09054610082565b90565b60018060401b031690565b5f1b90565b906100c460018060401b03916100ae565b9181191691161790565b90565b6100e56100e06100ea926100a3565b6100ce565b6100a3565b90565b90565b9061010561010061010c926100d1565b6100ed565b82546100b3565b9055565b610119906100a3565b9052565b9190610130905f60208501940190610110565b565b61013a6101ea565b6101455f8201610060565b6101ce576101545f8201610096565b61016c61016660018060401b036100a3565b916100a3565b03610175575b50565b610188905f60018060401b0391016100f0565b60018060401b036101c57fc7f505b2f371ae2175ee4913f4499e1f2633a7b5936321eed1cdaeb6115181d2916101bc61002c565b9182918261011d565b0390a15f610172565b5f63f92ee8a960e01b8152806101e66004820161006d565b0390fd5b6101f2610247565b90565b5f90565b90565b90565b61021361020e610218926101f9565b6100ae565b6101fc565b90565b6102447ff0c57e16840df040f15088dc2f81fe391c3923bec73e23a9662efc9c229c6a006101ff565b90565b61024f6101f5565b5061025861021b565b9056fe60806040526004361015610013575b610d34565b61001d5f3561017c565b806316330d40146101775780631ad8b03b1461017257806327cc37b01461016d5780633632e6c614610168578063368b29ef146101635780633f4ba83a1461015e5780634191fe5814610159578063514ea4bf146101545780635c975abb1461014f578063715018a61461014a5780638456cb59146101455780638795cccb146101405780638da5cb5b1461013b5780638e19899e14610136578063c4b475e414610131578063e1f1c4a71461012c578063e337fb5c14610127578063ea4a110414610122578063f2fde38b1461011d578063f961ade314610118578063fc0c546a146101135763fc41aa090361000e57610d00565b610c9e565b610bfc565b610b8e565b610b3a565b610aa4565b6109b3565b610948565b610913565b6108de565b610896565b610863565b610830565b6107fb565b6107c2565b610623565b61054f565b61051a565b610446565b6103ea565b610244565b610200565b60e01c90565b60405190565b5f80fd5b5f80fd5b5f91031261019a57565b61018c565b1c90565b90565b6101b69060086101bb930261019f565b6101a3565b90565b906101c991546101a6565b90565b6101d860025f906101be565b90565b90565b6101e7906101db565b9052565b91906101fe905f602085019401906101de565b565b3461023057610210366004610190565b61022c61021b6101cc565b610223610182565b918291826101eb565b0390f35b610188565b61024160035f906101be565b90565b3461027457610254366004610190565b61027061025f610235565b610267610182565b918291826101eb565b0390f35b610188565b5f80fd5b610286816101db565b0361028d57565b5f80fd5b9050359061029e8261027d565b565b5f80fd5b5f80fd5b601f801991011690565b634e487b7160e01b5f52604160045260245ffd5b906102d0906102a8565b810190811067ffffffffffffffff8211176102ea57604052565b6102b2565b906103026102fb610182565b92836102c6565b565b67ffffffffffffffff81116103225761031e6020916102a8565b0190565b6102b2565b90825f939282370152565b9092919261034761034282610304565b6102ef565b938185526020850190828401116103635761036192610327565b565b6102a4565b9080601f830112156103865781602061038393359101610332565b90565b6102a0565b906080828203126103e5576103a2815f8401610291565b926103b08260208501610291565b926103be8360408301610291565b92606082013567ffffffffffffffff81116103e0576103dd9201610368565b90565b610279565b61018c565b3461041e5761041a61040961040036600461038b565b929190916113aa565b610411610182565b918291826101eb565b0390f35b610188565b9060208282031261043c57610439915f01610291565b90565b61018c565b5f0190565b346104745761045e610459366004610423565b611455565b610466610182565b8061047081610441565b0390f35b610188565b90565b61049061048b610495926101db565b610479565b6101db565b90565b906104a29061047c565b5f5260205260405f2090565b60ff1690565b6104c49060086104c9930261019f565b6104ae565b90565b906104d791546104b4565b90565b6104f0906104eb6005915f92610498565b6104cc565b90565b151590565b610501906104f3565b9052565b9190610518905f602085019401906104f8565b565b3461054a57610546610535610530366004610423565b6104da565b61053d610182565b91829182610505565b0390f35b610188565b3461057d5761055f366004610190565b61056761147c565b61056f610182565b8061057981610441565b0390f35b610188565b60018060a01b031690565b61059d9060086105a2930261019f565b610582565b90565b906105b0915461058d565b90565b6105bf60015f906105a5565b90565b60018060a01b031690565b6105e16105dc6105e6926105c2565b610479565b6105c2565b90565b6105f2906105cd565b90565b6105fe906105e9565b90565b61060a906105f5565b9052565b9190610621905f60208501940190610601565b565b3461065357610633366004610190565b61064f61063e6105b3565b610646610182565b9182918261060e565b0390f35b610188565b90565b61066481610658565b0361066b57565b5f80fd5b9050359061067c8261065b565b565b9060208282031261069757610694915f0161066f565b90565b61018c565b6106a590610658565b90565b906106b29061069c565b5f5260205260405f2090565b5f1c90565b60018060a01b031690565b6106da6106df916106be565b6106c3565b90565b6106ec90546106ce565b90565b6106fb610700916106be565b6101a3565b90565b61070d90546106ef565b90565b61071b9060076106a8565b6107265f82016106e2565b9161073360018301610703565b9161074060028201610703565b91610759600461075260038501610703565b9301610703565b90565b610765906105c2565b90565b6107719061075c565b9052565b909594926107c0946107af6107b9926107a560809661079b60a088019c5f890190610768565b60208701906101de565b60408501906101de565b60608301906101de565b01906101de565b565b346107f6576107f26107dd6107d836600461067e565b610710565b916107e9959395610182565b95869586610775565b0390f35b610188565b3461082b5761080b366004610190565b61082761081661148a565b61081e610182565b91829182610505565b0390f35b610188565b3461085e57610840366004610190565b6108486114f5565b610850610182565b8061085a81610441565b0390f35b610188565b3461089157610873366004610190565b61087b61151b565b610883610182565b8061088d81610441565b0390f35b610188565b346108c4576108a6366004610190565b6108ae6115aa565b6108b6610182565b806108c081610441565b0390f35b610188565b91906108dc905f60208501940190610768565b565b3461090e576108ee366004610190565b61090a6108f96115b8565b610901610182565b918291826108c9565b0390f35b610188565b346109435761093f61092e61092936600461067e565b611a99565b610936610182565b918291826101eb565b0390f35b610188565b346109765761096061095b366004610423565b611c06565b610968610182565b8061097281610441565b0390f35b610188565b90565b61099261098d6109979261097b565b610479565b6101db565b90565b6109a561271061097e565b90565b6109b061099a565b90565b346109e3576109c3366004610190565b6109df6109ce6109a8565b6109d6610182565b918291826101eb565b0390f35b610188565b6109f18161075c565b036109f857565b5f80fd5b90503590610a09826109e8565b565b5f80fd5b5f80fd5b909182601f83011215610a4d5781359167ffffffffffffffff8311610a48576020019260208302840111610a4357565b610a0f565b610a0b565b6102a0565b91606083830312610a9f57610a69825f85016109fc565b92610a7783602083016109fc565b92604082013567ffffffffffffffff8111610a9a57610a969201610a13565b9091565b610279565b61018c565b34610ad657610ac0610ab7366004610a52565b929190916120ec565b610ac8610182565b80610ad281610441565b0390f35b610188565b90610ae59061047c565b5f5260205260405f2090565b610afc906004610adb565b90610b146001610b0d5f8501610703565b9301610703565b90565b916020610b38929493610b3160408201965f8301906101de565b01906101de565b565b34610b6b57610b52610b4d366004610423565b610af1565b90610b67610b5e610182565b92839283610b17565b0390f35b610188565b90602082820312610b8957610b86915f016109fc565b90565b61018c565b34610bbc57610ba6610ba1366004610b70565b61215f565b610bae610182565b80610bb881610441565b0390f35b610188565b610bca906105e9565b90565b90610bd790610bc1565b5f5260205260405f2090565b610bf990610bf46006915f92610bcd565b6101be565b90565b34610c2c57610c28610c17610c12366004610b70565b610be3565b610c1f610182565b918291826101eb565b0390f35b610188565b60018060a01b031690565b610c4c906008610c51930261019f565b610c31565b90565b90610c5f9154610c3c565b90565b610c6d5f5f90610c54565b90565b610c79906105e9565b90565b610c8590610c70565b9052565b9190610c9c905f60208501940190610c7c565b565b34610cce57610cae366004610190565b610cca610cb9610c62565b610cc1610182565b91829182610c89565b0390f35b610188565b9190604083820312610cfb5780610cef610cf8925f8601610291565b93602001610291565b90565b61018c565b34610d2f57610d19610d13366004610cd3565b9061223e565b610d21610182565b80610d2b81610441565b0390f35b610188565b5f80fd5b5f90565b90610d5194939291610d4c612276565b610d5c565b90610d5a612302565b565b90610d7194939291610d6c61231f565b61107d565b90565b90565b610d8b610d86610d9092610d74565b610479565b6101db565b90565b610d9f610da4916106be565b6104ae565b90565b610db19054610d93565b90565b634e487b7160e01b5f52601160045260245ffd5b610dd1906101db565b5f198114610ddf5760010190565b610db4565b5f1b90565b90610df55f1991610de4565b9181191691161790565b90565b90610e17610e12610e1e9261047c565b610dff565b8254610de9565b9055565b60601b90565b610e3190610e22565b90565b610e3d90610e28565b90565b610e4c610e519161075c565b610e34565b9052565b90565b610e64610e69916101db565b610e55565b9052565b601481610e80610e889360209695610e40565b018092610e58565b0190565b60200190565b5190565b90565b90610eaa60018060a01b0391610de4565b9181191691161790565b90565b90610ecc610ec7610ed392610bc1565b610eb4565b8254610e99565b9055565b610ee6610eec919392936101db565b926101db565b8201809211610ef757565b610db4565b610f08610f0d916106be565b610c31565b90565b610f1a9054610efc565b90565b610f26906105cd565b90565b610f3290610f1d565b90565b610f3e906105e9565b90565b610f4a906105e9565b90565b5f80fd5b60e01b90565b5f910312610f6157565b61018c565b60209181520190565b90825f9392825e0152565b610f99610fa2602093610fa793610f9081610e92565b93848093610f66565b95869101610f6f565b6102a8565b0190565b9193610fe2610ff99694610fd8610fec9497610fce60a08801995f890190610768565b6020870190610768565b60408501906101de565b60608301906101de565b6080818403910152610f7a565b90565b611004610182565b3d5f823e3d90fd5b61101861101d916106be565b610582565b90565b61102a905461100c565b90565b9050519061103a8261027d565b565b9060208282031261105557611052915f0161102d565b90565b61018c565b91602061107b92949361107460408201965f8301906101de565b0190610768565b565b94939190929450826110976110915f610d77565b916101db565b1461138e576110b96110b36110ae60058490610498565b610da7565b156104f3565b61137257336111106110cd60063390610bcd565b6110e96110d982610703565b916110e383610dc8565b90610e02565b916111016110f5610182565b93849260208401610e6d565b602082018103825203826102c6565b61112261111c82610e92565b91610e8c565b2091611138611133600785906106a8565b610e96565b95611145335f8901610eb7565b6111528560018901610e02565b611169611160428590610ed7565b60038901610e02565b6111768360048901610e02565b61119761119261118d6111885f610f10565b610c70565b610f29565b610f35565b639fd5a6cf9033916111a830610f41565b9488949091833b1561136d576111df6111d4935f979388946111c8610182565b9a8b998a988997610f51565b875260048701610fab565b03925af19081611341575b50155f1461133c576001611337575b5b6112186112065f610f10565b3361121030610f41565b9086926123ac565b61122a6112256001611020565b6105f5565b906020636e553f6592859061125a5f61124230610f41565b9661126561124e610182565b98899687958694610f51565b84526004840161105a565b03925af1918215611332576112b29261128b915f91611304575b50966002889101610e02565b6112ac600161129c88936004610adb565b01916112a783610703565b610ed7565b90610e02565b90339091846112ea6112e47f26f97417b32fdaf792dabcb9bfae983a94e40f76f1e4a15bdb874283654b0d669361069c565b93610bc1565b936112ff6112f6610182565b92839283610b17565b0390a3565b611325915060203d811161132b575b61131d81836102c6565b81019061103c565b5f61127f565b503d611313565b610ffc565b6111f9565b6111fa565b611360905f3d8111611366575b61135881836102c6565b810190610f57565b5f6111ea565b503d61134e565b610f4d565b5f630e7af11760e41b81528061138a60048201610441565b0390fd5b5f63162908e360e11b8152806113a660048201610441565b0390fd5b906113be9392916113b9610d38565b610d3c565b90565b6113d2906113cd6123fc565b6113d4565b565b806113ee6113e86113e361099a565b6101db565b916101db565b11611439576113fe816002610e02565b6114347f45108bbe17e2c6b15aef1a0c3b1668a1bc7f6d41aeb46a048100e839ba6fdac89161142b610182565b918291826101eb565b0390a1565b5f6358d620b360e01b81528061145160048201610441565b0390fd5b61145e906113c1565b565b6114686123fc565b611470611472565b565b61147a6124b3565b565b611484611460565b565b5f90565b611492611486565b506114a55f61149f6124bd565b01610da7565b90565b6114b06123fc565b6114b86114e2565b565b6114ce6114c96114d392610d74565b610479565b6105c2565b90565b6114df906114ba565b90565b6114f36114ee5f6114d6565b6124e1565b565b6114fd6114a8565b565b6115076123fc565b61150f611511565b565b6115196125b7565b565b6115236114ff565b565b61152d6123fc565b611535611537565b565b6115416003610703565b61155461154d5f610d77565b6003610e02565b61156f6115605f610f10565b6115686115b8565b83916125e4565b6115a57f951a86b0458e05dec69512ef305168520351a732ff2c01b3f0e3d19914e4227a9161159c610182565b918291826101eb565b0390a1565b6115b2611525565b565b5f90565b6115c06115b4565b506115d35f6115cd612632565b016106e2565b90565b906115e8916115e3612276565b6115f3565b906115f1612302565b565b906116059161160061231f565b6116fc565b90565b604090611631611638949695939661162760608401985f8501906101de565b6020830190610768565b0190610768565b565b61164961164f919392936101db565b926101db565b820391821161165a57565b610db4565b61166e611674919392936101db565b926101db565b916116808382026101db565b92818404149015171561168f57565b610db4565b634e487b7160e01b5f52601260045260245ffd5b6116b46116ba916101db565b916101db565b9081156116c5570490565b611694565b6040906116f36116fa94969593966116e960608401985f8501906101de565b60208301906101de565b01906101de565b565b9190915061171461170f600784906106a8565b610e96565b916117205f84016106e2565b61173a61173461172f5f6114d6565b61075c565b9161075c565b14611a7d5761174a5f84016106e2565b61175c6117563361075c565b9161075c565b03611a615761177561176d5f6114d6565b5f8501610eb7565b61178160048401610703565b61179361178e6001611020565b6105f5565b602063ba087652916117a760028801610703565b906117d65f6117b530610f41565b956117e16117c230610f41565b6117ca610182565b98899788968795610f51565b855260048501611608565b03925af1908115611a5c575f91611a2e575b50916117fe5f610d77565b918361181d61181761181260018a01610703565b6101db565b916101db565b115f14611a205761183a8461183460018901610703565b9061163a565b5b93864261185b61185561185060038501610703565b6101db565b916101db565b105f146119bc57509061194f600161193f611937600261192f611955976119288c6118ab6118a36118958361188f89610703565b9061165f565b61189d61099a565b906116a8565b91829061163a565b906118c96118c2826118bd6003610703565b610ed7565b6003610e02565b6118ff7f676f71443bd345c51a63069e476c91f132bbe628305bc36f7aa471ef363a377c916118f6610182565b918291826101eb565b0390a16119225f61191260048d90610adb565b019161191d83610703565b610ed7565b90610e02565b8b9061163a565b9b5b01610703565b936004610adb565b019161194a83610703565b61163a565b90610e02565b6119696119615f610f10565b3387916125e4565b3391859390936119b76119a561199f7f09992d9f82b5ecd3d6148aa8e82a0a7f57dd53170b5f00f448372b66ec0f9a2f9561069c565b95610bc1565b956119ae610182565b938493846116ca565b0390a3565b61195592919450600161193f6119376002611a1a6119e86119e18361194f9801610703565b8890612656565b99611a138b611a0d5f6119fd60048d90610adb565b0191611a0883610703565b61163a565b90610e02565b8a90610ed7565b9b611931565b611a295f610d77565b61183b565b611a4f915060203d8111611a55575b611a4781836102c6565b81019061103c565b5f6117f3565b503d611a3d565b610ffc565b5f6370d645e360e01b815280611a7960048201610441565b0390fd5b5f636ec9be1160e01b815280611a9560048201610441565b0390fd5b611aaa90611aa5610d38565b6115d6565b90565b611abe90611ab96123fc565b611b90565b565b60209181520190565b5f7f4c6f636b20706572696f6420616c726561647920737570706f72746564000000910152565b611afd601d602092611ac0565b611b0681611ac9565b0190565b611b1f9060208101905f818303910152611af0565b90565b15611b2957565b611b31610182565b62461bcd60e51b815280611b4760048201611b0a565b0390fd5b90611b5760ff91610de4565b9181191691161790565b611b6a906104f3565b90565b90565b90611b85611b80611b8c92611b61565b611b6d565b8254611b4b565b9055565b611bb5611bb0611baa611ba560058590610498565b610da7565b156104f3565b611b22565b611bcb6001611bc660058490610498565b611b70565b611c017f23c2ee36c460d523037216f3302dbaed4a5237cddfc6b97b53561c8d8a198f9c91611bf8610182565b918291826101eb565b0390a1565b611c0f90611aad565b565b60401c90565b611c23611c2891611c11565b6104ae565b90565b611c359054611c17565b90565b67ffffffffffffffff1690565b611c51611c56916106be565b611c38565b90565b611c639054611c45565b90565b67ffffffffffffffff1690565b611c87611c82611c8c92610d74565b610479565b611c66565b90565b90565b611ca6611ca1611cab92611c8f565b610479565b611c66565b90565b611cb7906105e9565b90565b90611ccd67ffffffffffffffff91610de4565b9181191691161790565b611ceb611ce6611cf092611c66565b610479565b611c66565b90565b90565b90611d0b611d06611d1292611cd7565b611cf3565b8254611cba565b9055565b60401b90565b90611d3068ff000000000000000091611d16565b9181191691161790565b90611d4f611d4a611d5692611b61565b611b6d565b8254611d1c565b9055565b611d6390611c92565b9052565b9190611d7a905f60208501940190611d5a565b565b909192611d876126c8565b93611d9c611d965f8701611c2b565b156104f3565b93611da85f8701611c59565b80611dbb611db55f611c73565b91611c66565b1480611ed5575b90611dd6611dd06001611c92565b91611c66565b1480611ead575b611de89091156104f3565b9081611e9c575b50611e8057611e1893611e0d611e056001611c92565b5f8901611cf6565b85611e6e575b611fb3565b611e20575b50565b611e2d905f809101611d3a565b6001611e657fc7f505b2f371ae2175ee4913f4499e1f2633a7b5936321eed1cdaeb6115181d291611e5c610182565b91829182611d67565b0390a15f611e1d565b611e7b60015f8901611d3a565b611e13565b5f63f92ee8a960e01b815280611e9860048201610441565b0390fd5b611ea79150156104f3565b5f611def565b50611de8611eba30611cae565b3b611ecd611ec75f610d77565b916101db565b149050611ddd565b5085611dc2565b611ee5906105cd565b90565b611ef190611edc565b90565b611efd90611edc565b90565b90565b90611f18611f13611f1f92611ef4565b611f00565b8254610e99565b9055565b611f2c906105cd565b90565b611f3890611f23565b90565b611f4490611f23565b90565b90565b90611f5f611f5a611f6692611f3b565b611f47565b8254610e99565b9055565b5090565b6001611f7a91016101db565b90565b634e487b7160e01b5f52603260045260245ffd5b9190811015611fa1576020020190565b611f7d565b35611fb08161027d565b90565b939293611fbf336126f1565b611fc7612706565b611fcf61272c565b80611fea611fe4611fdf5f6114d6565b61075c565b9161075c565b1480156120ca575b6120ae5761201b9161200f61200961201493611ee8565b5f611f03565b611f2f565b6001611f4a565b612026818490611f6a565b916120305f610d77565b5b8061204461203e866101db565b916101db565b10156120815761207c906120776001612072600561206c612067898c8891611f91565b611fa6565b90610498565b611b70565b611f6e565b612031565b50925050506120ac6120925f610f10565b6120a461209f6001611020565b6105f5565b5f1991612766565b565b5f63e6c4247b60e01b8152806120c660048201610441565b0390fd5b50816120e66120e06120db5f6114d6565b61075c565b9161075c565b14611ff2565b906120f8939291611d7c565b565b61210b906121066123fc565b61210d565b565b8061212861212261211d5f6114d6565b61075c565b9161075c565b1461213857612136906124e1565b565b61215b6121445f6114d6565b5f918291631e4fbdf760e01b8352600483016108c9565b0390fd5b612168906120fa565b565b9061217c916121776123fc565b61217e565b565b61219b61219561219060058490610498565b610da7565b156104f3565b612222576121e7906121c16121af5f610f10565b336121b930610f41565b9086926123ac565b6121e15f6121d185936004610adb565b01916121dc83610703565b610ed7565b90610e02565b61221d7ff8fad42e780bfa5459be3fe691e8ba1aec70342250112139c5771c3fd155f31291612214610182565b918291826101eb565b0390a1565b5f630e7af11760e41b81528061223a60048201610441565b0390fd5b906122489161216a565b565b90565b61226161225c6122669261224a565b610479565b6101db565b90565b612273600261224d565b90565b61227e612822565b6122895f8201610703565b6122a261229c612297612269565b6101db565b916101db565b146122bd576122bb905f6122b4612269565b9101610e02565b565b5f633ee5aeb560e01b8152806122d560048201610441565b0390fd5b6122ed6122e86122f292611c8f565b610479565b6101db565b90565b6122ff60016122d9565b90565b61231d61230d612822565b5f6123166122f5565b9101610e02565b565b61232761148a565b61232d57565b5f63d93c066560e01b81528061234560048201610441565b0390fd5b63ffffffff1690565b63ffffffff60e01b1690565b61237261236d61237792612349565b610f51565b612352565b90565b6040906123a36123aa949695939661239960608401985f850190610768565b6020830190610768565b01906101de565b565b6004926123e66123fa95936123f593946123cd6323b872dd9294919261235e565b936123d6610182565b978895602087019081520161237a565b602082018103825203836102c6565b612846565b565b6124046115b8565b61241d6124176124126128fa565b61075c565b9161075c565b0361242457565b61244661242f6128fa565b5f91829163118cdaa760e01b8352600483016108c9565b0390fd5b612452612907565b61245a61245c565b565b6124706124676124bd565b5f809101611b70565b6124786128fa565b6124ae7f5db9ee0a495bf2e6ff9c91a7834c1ba4fdd244a5e8aa4e537bd38aeae4b073aa916124a5610182565b918291826108c9565b0390a1565b6124bb61244a565b565b7fcd5ed15c6e187e77e9aee88184c21f4f2182ab5827cb3b7e07fbedcd63f0330090565b6124e9612632565b6125016124f75f83016106e2565b915f849101610eb7565b9061253561252f7f8be0079c531659141344cd1fd0a4f28419497f9722a3daafe3b4186f6b6457e093610bc1565b91610bc1565b9161253e610182565b8061254881610441565b0390a3565b61255561231f565b61255d61255f565b565b61257461256a6124bd565b5f60019101611b70565b61257c6128fa565b6125b27f62e78cea01bee320cd4e420270b5ea74000d11b0c9f74754ebdbfc544b05a258916125a9610182565b918291826108c9565b0390a1565b6125bf61254d565b565b9160206125e29294936125db60408201965f830190610768565b01906101de565b565b9061262b6126309361261c6004949361260363a9059cbb91939161235e565b9261260c610182565b96879460208601908152016125c1565b602082018103825203836102c6565b612846565b565b7f9016d09d72d40fdae2fd8ceac6b6234c7706214fd39c1cd1e609a0528c19930090565b9061265f610d38565b50612677600161267160048490610adb565b01610703565b908161268b6126855f610d77565b916101db565b146126b9576126b6926126ac5f6126a66126b1946004610adb565b01610703565b61165f565b6116a8565b90565b5050506126c55f610d77565b90565b6126d0612989565b90565b6126e4906126df61299d565b6126e6565b565b6126ef90612a35565b565b6126fa906126d3565b565b61270461299d565b565b61270e6126fc565b565b61271861299d565b612720612722565b565b61272a612a6f565b565b612734612710565b565b61273f90610d77565b9052565b91602061276492949361275d60408201965f830190610768565b0190612736565b565b90916127a960049161279a63095ea7b361278187939161235e565b9261278a610182565b95869460208601908152016125c1565b602082018103825203826102c6565b906127be6127b8828490612a79565b156104f3565b6127c8575b505050565b612815600461281a94612810849161280163095ea7b36127e85f9161235e565b926127f1610182565b9687946020860190815201612743565b602082018103825203836102c6565b612846565b612846565b5f80806127c3565b7f9b779b17422d0df92223018b32b4d1fa46e071723d6817e2486d003becc55f0090565b905f602091612853610d38565b5061285c610d38565b50828151910182855af1156128ef573d5f519061288161287b5f610d77565b916101db565b145f146128d5575061289281610c70565b3b6128a561289f5f610d77565b916101db565b145b6128ae5750565b6128ba6128d191610c70565b5f918291635274afe760e01b8352600483016108c9565b0390fd5b6128e86128e260016122d9565b916101db565b14156128a7565b6040513d5f823e3d90fd5b6129026115b4565b503390565b61291861291261148a565b156104f3565b61291e57565b5f638dfc202b60e01b81528061293660048201610441565b0390fd5b5f90565b90565b61295561295061295a9261293e565b610de4565b610658565b90565b6129867ff0c57e16840df040f15088dc2f81fe391c3923bec73e23a9662efc9c229c6a00612941565b90565b61299161293a565b5061299a61295d565b90565b6129ae6129a8612b1b565b156104f3565b6129b457565b5f631afcd79f60e31b8152806129cc60048201610441565b0390fd5b6129e1906129dc61299d565b6129e3565b565b806129fe6129f86129f35f6114d6565b61075c565b9161075c565b14612a0e57612a0c906124e1565b565b612a31612a1a5f6114d6565b5f918291631e4fbdf760e01b8352600483016108c9565b0390fd5b612a3e906129d0565b565b612a4861299d565b612a50612a52565b565b612a6d612a5d612822565b5f612a666122f5565b9101610e02565b565b612a77612a40565b565b905f602091612a86611486565b50612a8f611486565b50612a98610d38565b50612aa1610d38565b50828151910182855af13d915f51919283612abd575b50505090565b90919250612ad3612acd5f610d77565b916101db565b145f14612b0157612ae49150610c70565b3b612af7612af15f610d77565b916101db565b115b5f8080612ab7565b50612b15612b0f60016122d9565b916101db565b14612af9565b612b23611486565b50612b365f612b306126c8565b01611c2b565b9056fea2646970667358221220e318f2b018016af70ad2507e1f67b7527b4534275d2fc226917dad87dabafab764736f6c634300081e0033",
    "linkReferences": {}
  },
  "methodIdentifiers": {
    "BASIS_POINTS()": "e1f1c4a7",
    "accessManagedMSV()": "4191fe58",
    "addLockPeriod(uint256)": "c4b475e4",
    "addRewards(uint256,uint256)": "fc41aa09",
    "deposit(uint256,uint256,uint256,bytes)": "27cc37b0",
    "depositNonces(address)": "f961ade3",
    "earlyWithdrawalFee()": "16330d40",
    "initialize(address,address,uint256[])": "e337fb5c",
    "isSupportedLockPeriod(uint256)": "368b29ef",
    "owner()": "8da5cb5b",
    "pause()": "8456cb59",
    "paused()": "5c975abb",
    "periods(uint256)": "ea4a1104",
    "positions(bytes32)": "514ea4bf",
    "protocolFees()": "1ad8b03b",
    "renounceOwnership()": "715018a6",
    "token()": "fc0c546a",
    "transferOwnership(address)": "f2fde38b",
    "unpause()": "3f4ba83a",
    "updateEarlyWithdrawalFee(uint256)": "3632e6c6",
    "withdraw(bytes32)": "8e19899e",
    "withdrawProtocolFees()": "8795cccb"
  },
  "id": 56
}